{
  "contractName": "FeverContract",
  "abi": [
    {
      "constant": false,
      "inputs": [],
      "name": "increaseTemp",
      "outputs": [
        {
          "name": "",
          "type": "uint8"
        }
      ],
      "payable": false,
      "stateMutability": "nonpayable",
      "type": "function"
    },
    {
      "constant": false,
      "inputs": [],
      "name": "decreaseTemp",
      "outputs": [
        {
          "name": "",
          "type": "uint8"
        }
      ],
      "payable": false,
      "stateMutability": "nonpayable",
      "type": "function"
    },
    {
      "constant": true,
      "inputs": [],
      "name": "hasFever",
      "outputs": [
        {
          "name": "",
          "type": "bool"
        }
      ],
      "payable": false,
      "stateMutability": "view",
      "type": "function"
    },
    {
      "constant": true,
      "inputs": [],
      "name": "getTemperature",
      "outputs": [
        {
          "name": "",
          "type": "uint8"
        }
      ],
      "payable": false,
      "stateMutability": "view",
      "type": "function"
    },
    {
      "inputs": [],
      "payable": false,
      "stateMutability": "nonpayable",
      "type": "constructor"
    }
  ],
  "bytecode": "0x6060604052341561000f57600080fd5b60626000806101000a81548160ff021916908360ff160217905550610222806100396000396000f300606060405260043610610062576000357c0100000000000000000000000000000000000000000000000000000000900463ffffffff168063154c34e914610067578063267302b314610096578063510be825146100c55780636421d04b146100f2575b600080fd5b341561007257600080fd5b61007a610121565b604051808260ff1660ff16815260200191505060405180910390f35b34156100a157600080fd5b6100a9610172565b604051808260ff1660ff16815260200191505060405180910390f35b34156100d057600080fd5b6100d86101c4565b604051808215151515815260200191505060405180910390f35b34156100fd57600080fd5b6101056101e0565b604051808260ff1660ff16815260200191505060405180910390f35b600060646000809054906101000a900460ff1660ff16111561014257600080fd5b60008081819054906101000a900460ff1660010191906101000a81548160ff021916908360ff1602179055905090565b6000605f6000809054906101000a900460ff1660ff16101561019357600080fd5b60008081819054906101000a900460ff166001900391906101000a81548160ff021916908360ff1602179055905090565b600060646000809054906101000a900460ff1660ff1611905090565b60008060009054906101000a900460ff169050905600a165627a7a72305820fcc3c440b27ba42dc303da1a201b3041b4591297bb9aed02c584b13af85443db0029",
  "source": "pragma solidity ^0.4.17;\n\ncontract FeverContract {\n  uint8 temperature;\n\n\n  function FeverContract() public {\n    temperature = 98;\n  }\n\n  function getTemperature() public constant returns(uint8) {\n    return temperature;\n  }\n\n  function hasFever() public constant returns(bool) {\n    return temperature > 100;\n  }\n\n  function increaseTemp() public returns(uint8) {\n    if (temperature > 100) revert();\n    return ++temperature;\n  }\n\n  function decreaseTemp() public returns(uint8) {\n    if (temperature < 95) revert();\n    return --temperature;\n  }\n}\n",
  "sourcePath": "/Users/tsafaie/Workspace/projects/dapps/dapp-scratch-fever/contracts/FeverContract.sol",
  "compiler": {
    "name": "solc",
    "version": "0.4.18+commit.9cf6e910.Emscripten.clang"
  },
  "schemaVersion": "1.0.1",
  "updatedAt": "2017-12-18T23:45:29.824Z"
}